:030000000203DA1E
:0C03DA00787FE4F6D8FD75813A0204211A
:1005C00000C000F900A400B000990092008200F879
:0405D0000080009017
:1005E70002350000013A00013900C100023700005E
:100591007C00AF03AE021201E57C007D0A1201E589
:1005A100ED25E0FFEC33FE74C02FF58274053EF5B6
:0605B10083740193F5A024
:0805B7007F9F7E01DEFEDFFAEA
:0105BF002219
:0C0606007F057E047DF8DDFEDEFADFF6E5
:0106120022C5
:0B062000D288D2B8D2A8D28ED2AF226E
:0E05F800758902D2A9C28C758CEC758AEC2232
:030003000205D41F
:1005D400208C08C200753700753800B28C208C025C
:0305E400D2003210
:03000B00020613D7
:0D061300C0E00538E53870020537D0E03250
:10054F0030003EE53825E0F536E53733F535AF3683
:10055F00AB07FAE4F9F87FA07E867D01FC12050B4C
:10056F008E358F367C007D0A1201D38E358F36E59E
:10057F003A25E02421F8A63508A636053AAE35AF60
:02058F00362212
:10031600E4FFFEFDED25E02423F8E6FA08E6FBED12
:1003260025E02421F8E6F58308E6F582D39BE583EC
:100336009A402785830A85820BED25E02423F8E67B
:10034600FA08E6FBED25E02421F8A60208A603ED4F
:1003560025E02423F8A60A08A60B0DBD09B67D08DC
:10036600ED25E0241FF8E6FA08E6FBED25E024215A
:10037600F8E6F58308E6F582C39BE5839A50278560
:10038600830A85820BED25E0241FF8E6FA08E6FBD2
:10039600ED25E02421F8A60208A603ED25E0241F9A
:1003A600F8A60A08A60B1DBD01B67D01ED25E024C1
:1003B60021F8E6FA08E62FFFEA3EFE0DBD09EDAD8F
:1003C60007AC06E4120119E4FBFAF9783E12000EB6
:0303D600120152BF
:0103D9002201
:1004C400AB07AA067590017C037DE8AF03AE021268
:1004D40001E5EF25E0FFEE1205A675A0FF75900279
:1004E4007D6412059175A0FF1205B77590047D0A0D
:1004F40012059175A0FF1205B7759008AE02AF03FF
:0705040012059A75A0FF2209
:10046600E4F508F5091206201205F812054F7F017A
:100476007E001204C4E53AB40AF1C2AF1203168E26
:10048600088F09C3E50994E8E50894035027AE08E8
:10049600AF097C007D0A1201D38E088F09AF09AE21
:1004A600081204C475900475A07F1205B775A0FFE5
:0E04B6001205B780E8AF09AE081204C480F743
:10000E00EC4D6011E8497017ED33EC3304600DE4EC
:10001E00FCFFFEFD22E933E8330470F80201BE1244
:10002E00018958046009E4CC248150062850090245
:10003E0001C82840030201C5C0E0EB4A7044B980F4
:10004E0006D0E0FB0201B4EF4E701CBD8008EBFF42
:10005E00EAFEE9FD80EBE98DF0A4FEE5F00200F783
:10006E00E9CDF9EAFEEBFFEF89F0A4FCE5F0CE89CD
:10007E00F0A42EFFE435F0CD89F0A42DFEE435F08A
:10008E008067EF4E7005BD80D780C3EF8BF0A4ACB8
:10009E00F0EE8BF0A42CFCE435F0F8EF8AF0A42CF3
:1000AE00E5F038FCE433CB8DF0A42CFCE5F03BF806
:1000BE00EE8AF0A42CFCE5F038F8E433CF89F0A4F6
:1000CE002CFCE5F038CF3400CE89F0A42FFFE5F0FC
:1000DE003EFEE433C98DF0A42EFEE5F039CD8AF054
:1000EE00A42FFFE5F03EFEE43DFD33D0E0FB5007CC
:1000FE000BBB000F0201C8EC2CFCEF33FFEE33FEFE
:06010E00ED33FD0201A02B
:1001140075F020800E75F010800575F0087D007E66
:10012400007F003392D530D50312023AEC334010ED
:10013400EF33FFEE33FEED33FDEC33FCD5F0ED226F
:0E014400E5F0247EA2D513CC92E7CDCEFF22AB
:10015200EDD2E7CD33EC3392D524814006E4FFFEA5
:10016200FDFC22FCE4CFCECDCC24E0501174FF8004
:10017200EDC3CC13CCCD13CDCE13CECF13CF0470A1
:07018200F030D5DE02023A65
:10018900E9D2E7C933E833F892D5EDD2E7CD33ECBC
:0701990033FC5002B2D52235
:1001A000EC30E7100FBF000C0EBE00080DBD0004C0
:1001B0000BEB6014A2D5EB13FCED92E7FD2274FF6C
:1001C000FCFDFEFF22E480F8A2D574FF13FC7D80C5
:0301D000E480EFD9
:1003E600020466E493A3F8E493A34003F68001F2C3
:1003F60008DFF48029E493A3F85407240CC8C33318
:10040600C4540F4420C8834004F456800146F6DFE6
:10041600E4800B01020408102040809005E7E47E8A
:10042600019360BCA3FF543F30E509541FFEE493DB
:10043600A360010ECF54C025E060A840B8E493A3A2
:10044600FAE493A3F8E493A3C8C582C8CAC583CACD
:10045600F0A3C8C582C8CAC583CADFE9DEE780BE85
:0105F7000003
:1001D300EF8DF0A4A8F0CF8CF0A428CE8DF0A42E40
:0201E300FE22FA
:1001E500BC000BBE0029EF8DF084FFADF022E4CCFE
:1001F500F875F008EF2FFFEE33FEEC33FCEE9DECC7
:10020500984005FCEE9DFE0FD5F0E9E4CEFD22ED0C
:10021500F8F5F0EE8420D21CFEADF075F008EF2F56
:10022500FFED33FD4007985006D5F0F222C398FD47
:050235000FD5F0EA22E4
:10050B00C2D5E830E70FB2D5E4C39BFBE49AFAE41B
:10051B0099F9E498F8EC30E717B2D51205411202BD
:10052B0084E4C39BFBE49AFAE499F9E498F880031A
:10053B0012028430D50DE4C39FFFE49EFEE49DFDC3
:04054B00E49CFC220E
:0E023A00C3E49FFFE49EFEE49DFDE49CFC22D5
:1002480075F008758200EF2FFFEE33FECD33CDCC6D
:1002580033CCC58233C5829BED9AEC99E5829840F0
:100268000CF582EE9BFEED9AFDEC99FC0FD5F0D6CD
:10027800E4CEFBE4CDFAE4CCF9A88222B800C1B9F7
:100288000059BA002DEC8BF084CFCECDFCE5F0CB35
:10029800F97818EF2FFFEE33FEED33FDEC33FCEB6E
:1002A80033FB10D703994004EB99FB0FD8E5E4F929
:1002B800FA227818EF2FFFEE33FEED33FDEC33FC16
:1002C800C933C910D7059BE99A4007EC9BFCE99A0A
:1002D800F90FD8E0E4C9FAE4CCFB2275F010EF2F4F
:1002E800FFEE33FEED33FDCC33CCC833C810D7074F
:1002F8009BEC9AE899400AED9BFDEC9AFCE899F88A
:0E0308000FD5F0DAE4CDFBE4CCFAE4C8F9221C
:00000001FF
